{
  "_format": "hh-sol-artifact-1",
  "contractName": "MyEpicGame",
  "sourceName": "contracts/MyEpicGame.sol",
  "abi": [
    {
      "inputs": [
        {
          "internalType": "uint64",
          "name": "subscriptionId",
          "type": "uint64"
        },
        {
          "internalType": "string[]",
          "name": "characterNames",
          "type": "string[]"
        },
        {
          "internalType": "string[]",
          "name": "characterImageURIs",
          "type": "string[]"
        },
        {
          "internalType": "uint256[]",
          "name": "characterHp",
          "type": "uint256[]"
        },
        {
          "internalType": "uint256[]",
          "name": "characterAttackDmg",
          "type": "uint256[]"
        },
        {
          "internalType": "string",
          "name": "bossName",
          "type": "string"
        },
        {
          "internalType": "string",
          "name": "bossImageURI",
          "type": "string"
        },
        {
          "internalType": "uint256",
          "name": "bossHp",
          "type": "uint256"
        },
        {
          "internalType": "uint256",
          "name": "bossAttackDamage",
          "type": "uint256"
        }
      ],
      "stateMutability": "nonpayable",
      "type": "constructor"
    },
    {
      "inputs": [
        {
          "internalType": "address",
          "name": "have",
          "type": "address"
        },
        {
          "internalType": "address",
          "name": "want",
          "type": "address"
        }
      ],
      "name": "OnlyCoordinatorCanFulfill",
      "type": "error"
    },
    {
      "anonymous": false,
      "inputs": [
        {
          "indexed": true,
          "internalType": "address",
          "name": "owner",
          "type": "address"
        },
        {
          "indexed": true,
          "internalType": "address",
          "name": "approved",
          "type": "address"
        },
        {
          "indexed": true,
          "internalType": "uint256",
          "name": "tokenId",
          "type": "uint256"
        }
      ],
      "name": "Approval",
      "type": "event"
    },
    {
      "anonymous": false,
      "inputs": [
        {
          "indexed": true,
          "internalType": "address",
          "name": "owner",
          "type": "address"
        },
        {
          "indexed": true,
          "internalType": "address",
          "name": "operator",
          "type": "address"
        },
        {
          "indexed": false,
          "internalType": "bool",
          "name": "approved",
          "type": "bool"
        }
      ],
      "name": "ApprovalForAll",
      "type": "event"
    },
    {
      "anonymous": false,
      "inputs": [
        {
          "indexed": false,
          "internalType": "uint256",
          "name": "newBossHp",
          "type": "uint256"
        },
        {
          "indexed": false,
          "internalType": "uint256",
          "name": "newPlayerHp",
          "type": "uint256"
        }
      ],
      "name": "AttackComplete",
      "type": "event"
    },
    {
      "anonymous": false,
      "inputs": [
        {
          "indexed": false,
          "internalType": "address",
          "name": "sender",
          "type": "address"
        },
        {
          "indexed": false,
          "internalType": "uint256",
          "name": "tokenId",
          "type": "uint256"
        },
        {
          "indexed": false,
          "internalType": "uint256",
          "name": "characterIndex",
          "type": "uint256"
        }
      ],
      "name": "CharacterNFTMinted",
      "type": "event"
    },
    {
      "anonymous": false,
      "inputs": [
        {
          "indexed": false,
          "internalType": "address",
          "name": "loser",
          "type": "address"
        },
        {
          "indexed": false,
          "internalType": "uint256",
          "name": "tokenId",
          "type": "uint256"
        },
        {
          "indexed": false,
          "internalType": "string",
          "name": "charName",
          "type": "string"
        }
      ],
      "name": "Losers",
      "type": "event"
    },
    {
      "anonymous": false,
      "inputs": [
        {
          "indexed": true,
          "internalType": "address",
          "name": "from",
          "type": "address"
        },
        {
          "indexed": true,
          "internalType": "address",
          "name": "to",
          "type": "address"
        },
        {
          "indexed": true,
          "internalType": "uint256",
          "name": "tokenId",
          "type": "uint256"
        }
      ],
      "name": "Transfer",
      "type": "event"
    },
    {
      "anonymous": false,
      "inputs": [
        {
          "indexed": false,
          "internalType": "address",
          "name": "winner",
          "type": "address"
        },
        {
          "indexed": false,
          "internalType": "uint256",
          "name": "tokenId",
          "type": "uint256"
        },
        {
          "indexed": false,
          "internalType": "string",
          "name": "charName",
          "type": "string"
        }
      ],
      "name": "Winners",
      "type": "event"
    },
    {
      "inputs": [
        {
          "internalType": "address",
          "name": "to",
          "type": "address"
        },
        {
          "internalType": "uint256",
          "name": "tokenId",
          "type": "uint256"
        }
      ],
      "name": "approve",
      "outputs": [],
      "stateMutability": "nonpayable",
      "type": "function"
    },
    {
      "inputs": [],
      "name": "attackBoss",
      "outputs": [],
      "stateMutability": "nonpayable",
      "type": "function"
    },
    {
      "inputs": [
        {
          "internalType": "address",
          "name": "owner",
          "type": "address"
        }
      ],
      "name": "balanceOf",
      "outputs": [
        {
          "internalType": "uint256",
          "name": "",
          "type": "uint256"
        }
      ],
      "stateMutability": "view",
      "type": "function"
    },
    {
      "inputs": [],
      "name": "bigBoss",
      "outputs": [
        {
          "internalType": "string",
          "name": "name",
          "type": "string"
        },
        {
          "internalType": "string",
          "name": "imageURI",
          "type": "string"
        },
        {
          "internalType": "uint256",
          "name": "hp",
          "type": "uint256"
        },
        {
          "internalType": "uint256",
          "name": "maxHp",
          "type": "uint256"
        },
        {
          "internalType": "uint256",
          "name": "attackDamage",
          "type": "uint256"
        }
      ],
      "stateMutability": "view",
      "type": "function"
    },
    {
      "inputs": [],
      "name": "checkIfUserHasNFT",
      "outputs": [
        {
          "components": [
            {
              "internalType": "uint256",
              "name": "characterIndex",
              "type": "uint256"
            },
            {
              "internalType": "string",
              "name": "name",
              "type": "string"
            },
            {
              "internalType": "string",
              "name": "imageURI",
              "type": "string"
            },
            {
              "internalType": "uint256",
              "name": "hp",
              "type": "uint256"
            },
            {
              "internalType": "uint256",
              "name": "maxHp",
              "type": "uint256"
            },
            {
              "internalType": "uint256",
              "name": "attackDamage",
              "type": "uint256"
            }
          ],
          "internalType": "struct MyEpicGame.CharacterAttributes",
          "name": "",
          "type": "tuple"
        }
      ],
      "stateMutability": "view",
      "type": "function"
    },
    {
      "inputs": [],
      "name": "getAllDefaultCharacters",
      "outputs": [
        {
          "components": [
            {
              "internalType": "uint256",
              "name": "characterIndex",
              "type": "uint256"
            },
            {
              "internalType": "string",
              "name": "name",
              "type": "string"
            },
            {
              "internalType": "string",
              "name": "imageURI",
              "type": "string"
            },
            {
              "internalType": "uint256",
              "name": "hp",
              "type": "uint256"
            },
            {
              "internalType": "uint256",
              "name": "maxHp",
              "type": "uint256"
            },
            {
              "internalType": "uint256",
              "name": "attackDamage",
              "type": "uint256"
            }
          ],
          "internalType": "struct MyEpicGame.CharacterAttributes[]",
          "name": "",
          "type": "tuple[]"
        }
      ],
      "stateMutability": "view",
      "type": "function"
    },
    {
      "inputs": [
        {
          "internalType": "uint256",
          "name": "tokenId",
          "type": "uint256"
        }
      ],
      "name": "getApproved",
      "outputs": [
        {
          "internalType": "address",
          "name": "",
          "type": "address"
        }
      ],
      "stateMutability": "view",
      "type": "function"
    },
    {
      "inputs": [],
      "name": "getBigBoss",
      "outputs": [
        {
          "components": [
            {
              "internalType": "string",
              "name": "name",
              "type": "string"
            },
            {
              "internalType": "string",
              "name": "imageURI",
              "type": "string"
            },
            {
              "internalType": "uint256",
              "name": "hp",
              "type": "uint256"
            },
            {
              "internalType": "uint256",
              "name": "maxHp",
              "type": "uint256"
            },
            {
              "internalType": "uint256",
              "name": "attackDamage",
              "type": "uint256"
            }
          ],
          "internalType": "struct MyEpicGame.BigBoss",
          "name": "",
          "type": "tuple"
        }
      ],
      "stateMutability": "view",
      "type": "function"
    },
    {
      "inputs": [
        {
          "internalType": "address",
          "name": "owner",
          "type": "address"
        },
        {
          "internalType": "address",
          "name": "operator",
          "type": "address"
        }
      ],
      "name": "isApprovedForAll",
      "outputs": [
        {
          "internalType": "bool",
          "name": "",
          "type": "bool"
        }
      ],
      "stateMutability": "view",
      "type": "function"
    },
    {
      "inputs": [
        {
          "internalType": "uint256",
          "name": "_characterIndex",
          "type": "uint256"
        }
      ],
      "name": "mintCharacterNFT",
      "outputs": [],
      "stateMutability": "payable",
      "type": "function"
    },
    {
      "inputs": [],
      "name": "name",
      "outputs": [
        {
          "internalType": "string",
          "name": "",
          "type": "string"
        }
      ],
      "stateMutability": "view",
      "type": "function"
    },
    {
      "inputs": [
        {
          "internalType": "uint256",
          "name": "",
          "type": "uint256"
        }
      ],
      "name": "nftHolderAttributes",
      "outputs": [
        {
          "internalType": "uint256",
          "name": "characterIndex",
          "type": "uint256"
        },
        {
          "internalType": "string",
          "name": "name",
          "type": "string"
        },
        {
          "internalType": "string",
          "name": "imageURI",
          "type": "string"
        },
        {
          "internalType": "uint256",
          "name": "hp",
          "type": "uint256"
        },
        {
          "internalType": "uint256",
          "name": "maxHp",
          "type": "uint256"
        },
        {
          "internalType": "uint256",
          "name": "attackDamage",
          "type": "uint256"
        }
      ],
      "stateMutability": "view",
      "type": "function"
    },
    {
      "inputs": [
        {
          "internalType": "address",
          "name": "",
          "type": "address"
        }
      ],
      "name": "nftHolders",
      "outputs": [
        {
          "internalType": "uint256",
          "name": "",
          "type": "uint256"
        }
      ],
      "stateMutability": "view",
      "type": "function"
    },
    {
      "inputs": [],
      "name": "owner",
      "outputs": [
        {
          "internalType": "address payable",
          "name": "",
          "type": "address"
        }
      ],
      "stateMutability": "view",
      "type": "function"
    },
    {
      "inputs": [
        {
          "internalType": "uint256",
          "name": "tokenId",
          "type": "uint256"
        }
      ],
      "name": "ownerOf",
      "outputs": [
        {
          "internalType": "address",
          "name": "",
          "type": "address"
        }
      ],
      "stateMutability": "view",
      "type": "function"
    },
    {
      "inputs": [
        {
          "internalType": "uint256",
          "name": "requestId",
          "type": "uint256"
        },
        {
          "internalType": "uint256[]",
          "name": "randomWords",
          "type": "uint256[]"
        }
      ],
      "name": "rawFulfillRandomWords",
      "outputs": [],
      "stateMutability": "nonpayable",
      "type": "function"
    },
    {
      "inputs": [],
      "name": "requestRandomWords",
      "outputs": [],
      "stateMutability": "nonpayable",
      "type": "function"
    },
    {
      "inputs": [
        {
          "internalType": "uint256",
          "name": "",
          "type": "uint256"
        }
      ],
      "name": "s_randomWords",
      "outputs": [
        {
          "internalType": "uint256",
          "name": "",
          "type": "uint256"
        }
      ],
      "stateMutability": "view",
      "type": "function"
    },
    {
      "inputs": [],
      "name": "s_requestId",
      "outputs": [
        {
          "internalType": "uint256",
          "name": "",
          "type": "uint256"
        }
      ],
      "stateMutability": "view",
      "type": "function"
    },
    {
      "inputs": [
        {
          "internalType": "address",
          "name": "from",
          "type": "address"
        },
        {
          "internalType": "address",
          "name": "to",
          "type": "address"
        },
        {
          "internalType": "uint256",
          "name": "tokenId",
          "type": "uint256"
        }
      ],
      "name": "safeTransferFrom",
      "outputs": [],
      "stateMutability": "nonpayable",
      "type": "function"
    },
    {
      "inputs": [
        {
          "internalType": "address",
          "name": "from",
          "type": "address"
        },
        {
          "internalType": "address",
          "name": "to",
          "type": "address"
        },
        {
          "internalType": "uint256",
          "name": "tokenId",
          "type": "uint256"
        },
        {
          "internalType": "bytes",
          "name": "data",
          "type": "bytes"
        }
      ],
      "name": "safeTransferFrom",
      "outputs": [],
      "stateMutability": "nonpayable",
      "type": "function"
    },
    {
      "inputs": [
        {
          "internalType": "address",
          "name": "operator",
          "type": "address"
        },
        {
          "internalType": "bool",
          "name": "approved",
          "type": "bool"
        }
      ],
      "name": "setApprovalForAll",
      "outputs": [],
      "stateMutability": "nonpayable",
      "type": "function"
    },
    {
      "inputs": [
        {
          "internalType": "bytes4",
          "name": "interfaceId",
          "type": "bytes4"
        }
      ],
      "name": "supportsInterface",
      "outputs": [
        {
          "internalType": "bool",
          "name": "",
          "type": "bool"
        }
      ],
      "stateMutability": "view",
      "type": "function"
    },
    {
      "inputs": [],
      "name": "symbol",
      "outputs": [
        {
          "internalType": "string",
          "name": "",
          "type": "string"
        }
      ],
      "stateMutability": "view",
      "type": "function"
    },
    {
      "inputs": [
        {
          "internalType": "uint256",
          "name": "_tokenId",
          "type": "uint256"
        }
      ],
      "name": "tokenURI",
      "outputs": [
        {
          "internalType": "string",
          "name": "",
          "type": "string"
        }
      ],
      "stateMutability": "view",
      "type": "function"
    },
    {
      "inputs": [
        {
          "internalType": "address",
          "name": "from",
          "type": "address"
        },
        {
          "internalType": "address",
          "name": "to",
          "type": "address"
        },
        {
          "internalType": "uint256",
          "name": "tokenId",
          "type": "uint256"
        }
      ],
      "name": "transferFrom",
      "outputs": [],
      "stateMutability": "nonpayable",
      "type": "function"
    },
    {
      "inputs": [],
      "name": "withdraw",
      "outputs": [],
      "stateMutability": "nonpayable",
      "type": "function"
    }
  ],
  "bytecode": "0x60a0604052600780546001600160a01b031916732ca8e0c643bde4c2e08ab1fa0da3401adad7734d1790557f79d3d8832d904592c0bf9818b621522c988bb8b0c05cdc3b15aea1b6e8db0c156008556009805466020003000186a06001600160501b03199091161790553480156200007657600080fd5b50604051620045033803806200450383398101604081905262000099916200098b565b600754604080518082018252600b81526a1cdbdb191a595c8b585b9d60aa1b6020808301919091528251808401909352600383526210539560ea1b908301526001600160a01b0390921691906000620000f3838262000b4a565b50600162000102828262000b4a565b505050806001600160a01b03166080816001600160a01b03168152505050600760009054906101000a90046001600160a01b0316600660006101000a8154816001600160a01b0302191690836001600160a01b0316021790555033600c60006101000a8154816001600160a01b0302191690836001600160a01b0316021790555088600660146101000a8154816001600160401b0302191690836001600160401b0316021790555033600d60006101000a8154816001600160a01b0302191690836001600160a01b031602179055506040518060a00160405280858152602001848152602001838152602001838152602001828152506011600082015181600001908162000211919062000b4a565b506020820151600182019062000228908262000b4a565b50604082015181600201556060820151816003015560808201518160040155905050620003a56040518060600160405280602a8152602001620044d9602a913960118054620002779062000abb565b80601f0160208091040260200160405190810160405280929190818152602001828054620002a59062000abb565b8015620002f65780601f10620002ca57610100808354040283529160200191620002f6565b820191906000526020600020905b815481529060010190602001808311620002d857829003601f168201915b505060135460128054919450925062000310915062000abb565b80601f01602080910402602001604051908101604052809291908181526020018280546200033e9062000abb565b80156200038f5780601f1062000363576101008083540402835291602001916200038f565b820191906000526020600020905b8154815290600101906020018083116200037157829003601f168201915b5050505050620006e860201b62001f361760201c565b60005b8851811015620006c157600f6040518060c001604052808381526020018b8481518110620003da57620003da62000c16565b602002602001015181526020018a8481518110620003fc57620003fc62000c16565b602002602001015181526020018984815181106200041e576200041e62000c16565b6020026020010151815260200189848151811062000440576200044062000c16565b6020026020010151815260200188848151811062000462576200046262000c16565b6020908102919091018101519091528254600181810185556000948552938290208351600690920201908155908201519192909190820190620004a6908262000b4a565b5060408201516002820190620004bd908262000b4a565b50606082015181600301556080820151816004015560a0820151816005015550506000600f8281548110620004f657620004f662000c16565b90600052602060002090600602016040518060c0016040529081600082015481526020016001820180546200052b9062000abb565b80601f0160208091040260200160405190810160405280929190818152602001828054620005599062000abb565b8015620005aa5780601f106200057e57610100808354040283529160200191620005aa565b820191906000526020600020905b8154815290600101906020018083116200058c57829003601f168201915b50505050508152602001600282018054620005c59062000abb565b80601f0160208091040260200160405190810160405280929190818152602001828054620005f39062000abb565b8015620006445780601f10620006185761010080835404028352916020019162000644565b820191906000526020600020905b8154815290600101906020018083116200062657829003601f168201915b5050505050815260200160038201548152602001600482015481526020016005820154815250509050620006ab604051806060016040528060258152602001620044b460259139826020015183606001518460400151620006e860201b62001f361760201c565b50620006b960018262000c2c565b9050620003a8565b50620006d9600e6200073f60201b62001f7f1760201c565b50505050505050505062000cd2565b620007398484848460405160240162000705949392919062000c82565b60408051601f198184030181529190526020810180516001600160e01b03908116632e8d4b8d60e11b179091526200074816565b50505050565b80546001019055565b60006a636f6e736f6c652e6c6f679050600080835160208501845afa505050565b80516001600160401b03811681146200078157600080fd5b919050565b634e487b7160e01b600052604160045260246000fd5b604051601f8201601f191681016001600160401b0381118282101715620007c757620007c762000786565b604052919050565b60006001600160401b03821115620007eb57620007eb62000786565b5060051b60200190565b60005b8381101562000812578181015183820152602001620007f8565b50506000910152565b600082601f8301126200082d57600080fd5b81516001600160401b0381111562000849576200084962000786565b6200085e601f8201601f19166020016200079c565b8181528460208386010111156200087457600080fd5b62000887826020830160208701620007f5565b949350505050565b600082601f830112620008a157600080fd5b81516020620008ba620008b483620007cf565b6200079c565b82815260059290921b84018101918181019086841115620008da57600080fd5b8286015b848110156200091e5780516001600160401b03811115620008ff5760008081fd5b6200090f8986838b01016200081b565b845250918301918301620008de565b509695505050505050565b600082601f8301126200093b57600080fd5b815160206200094e620008b483620007cf565b82815260059290921b840181019181810190868411156200096e57600080fd5b8286015b848110156200091e578051835291830191830162000972565b60008060008060008060008060006101208a8c031215620009ab57600080fd5b620009b68a62000769565b60208b01519099506001600160401b0380821115620009d457600080fd5b620009e28d838e016200088f565b995060408c0151915080821115620009f957600080fd5b62000a078d838e016200088f565b985060608c015191508082111562000a1e57600080fd5b62000a2c8d838e0162000929565b975060808c015191508082111562000a4357600080fd5b62000a518d838e0162000929565b965060a08c015191508082111562000a6857600080fd5b62000a768d838e016200081b565b955060c08c015191508082111562000a8d57600080fd5b5062000a9c8c828d016200081b565b93505060e08a015191506101008a015190509295985092959850929598565b600181811c9082168062000ad057607f821691505b60208210810362000af157634e487b7160e01b600052602260045260246000fd5b50919050565b601f82111562000b4557600081815260208120601f850160051c8101602086101562000b205750805b601f850160051c820191505b8181101562000b415782815560010162000b2c565b5050505b505050565b81516001600160401b0381111562000b665762000b6662000786565b62000b7e8162000b77845462000abb565b8462000af7565b602080601f83116001811462000bb6576000841562000b9d5750858301515b600019600386901b1c1916600185901b17855562000b41565b600085815260208120601f198616915b8281101562000be75788860151825594840194600190910190840162000bc6565b508582101562000c065787850151600019600388901b60f8161c191681555b5050505050600190811b01905550565b634e487b7160e01b600052603260045260246000fd5b8082018082111562000c4e57634e487b7160e01b600052601160045260246000fd5b92915050565b6000815180845262000c6e816020860160208601620007f5565b601f01601f19169290920160200192915050565b60808152600062000c97608083018762000c54565b828103602084015262000cab818762000c54565b9050846040840152828103606084015262000cc7818562000c54565b979650505050505050565b6080516137bf62000cf5600039600081816108de015261092001526137bf6000f3fe60806040526004361061019c5760003560e01c806395d89b41116100ec578063c8cf27f41161008a578063e89e106a11610064578063e89e106a146104bf578063e985e9c5146104d5578063f6eaffc8146104f5578063f8b81ef71461051557600080fd5b8063c8cf27f414610473578063d4f24c5b14610495578063e0c86289146104aa57600080fd5b8063a9c32679116100c6578063a9c32679146103eb578063b88d4fde14610411578063b953084e14610431578063c87b56dd1461045357600080fd5b806395d89b411461038457806398da4c9514610399578063a22cb465146103cb57600080fd5b806323b872dd116101595780636352211e116101335780636352211e146102e957806370a08231146103095780637df124a1146103375780638da5cb5b1461036457600080fd5b806323b872dd146102945780633ccfd60b146102b457806342842e0e146102c957600080fd5b806301ffc9a7146101a15780630665f961146101d657806306fdde03146101f8578063081812fc1461021a578063095ea7b3146102525780631fe543e314610274575b600080fd5b3480156101ad57600080fd5b506101c16101bc366004612a81565b610528565b60405190151581526020015b60405180910390f35b3480156101e257600080fd5b506101eb61057a565b6040516101cd9190612af5565b34801561020457600080fd5b5061020d610700565b6040516101cd9190612b59565b34801561022657600080fd5b5061023a610235366004612b6c565b610792565b6040516001600160a01b0390911681526020016101cd565b34801561025e57600080fd5b5061027261026d366004612ba1565b6107b9565b005b34801561028057600080fd5b5061027261028f366004612c12565b6108d3565b3480156102a057600080fd5b506102726102af366004612cc4565b61095b565b3480156102c057600080fd5b5061027261098c565b3480156102d557600080fd5b506102726102e4366004612cc4565b610a70565b3480156102f557600080fd5b5061023a610304366004612b6c565b610a8b565b34801561031557600080fd5b50610329610324366004612d00565b610aeb565b6040519081526020016101cd565b34801561034357600080fd5b50610329610352366004612d00565b60166020526000908152604090205481565b34801561037057600080fd5b50600d5461023a906001600160a01b031681565b34801561039057600080fd5b5061020d610b71565b3480156103a557600080fd5b506103b96103b4366004612b6c565b610b80565b6040516101cd96959493929190612d1b565b3480156103d757600080fd5b506102726103e6366004612d65565b610cc5565b3480156103f757600080fd5b50610400610cd0565b6040516101cd959493929190612da1565b34801561041d57600080fd5b5061027261042c366004612de4565b610e02565b34801561043d57600080fd5b50610446610e3a565b6040516101cd9190612f07565b34801561045f57600080fd5b5061020d61046e366004612b6c565b610fe5565b34801561047f57600080fd5b506104886111f6565b6040516101cd9190612f69565b3480156104a157600080fd5b506102726113f2565b3480156104b657600080fd5b50610272611a9b565b3480156104cb57600080fd5b50610329600b5481565b3480156104e157600080fd5b506101c16104f0366004612f7c565b611ba1565b34801561050157600080fd5b50610329610510366004612b6c565b611bcf565b610272610523366004612b6c565b611bf0565b60006001600160e01b031982166380ac58cd60e01b148061055957506001600160e01b03198216635b5e139f60e01b145b8061057457506301ffc9a760e01b6001600160e01b03198316145b92915050565b6105ac6040518060a0016040528060608152602001606081526020016000815260200160008152602001600081525090565b60116040518060a00160405290816000820180546105c990612faf565b80601f01602080910402602001604051908101604052809291908181526020018280546105f590612faf565b80156106425780601f1061061757610100808354040283529160200191610642565b820191906000526020600020905b81548152906001019060200180831161062557829003601f168201915b5050505050815260200160018201805461065b90612faf565b80601f016020809104026020016040519081016040528092919081815260200182805461068790612faf565b80156106d45780601f106106a9576101008083540402835291602001916106d4565b820191906000526020600020905b8154815290600101906020018083116106b757829003601f168201915b505050505081526020016002820154815260200160038201548152602001600482015481525050905090565b60606000805461070f90612faf565b80601f016020809104026020016040519081016040528092919081815260200182805461073b90612faf565b80156107885780601f1061075d57610100808354040283529160200191610788565b820191906000526020600020905b81548152906001019060200180831161076b57829003601f168201915b5050505050905090565b600061079d82611f88565b506000908152600460205260409020546001600160a01b031690565b60006107c482610a8b565b9050806001600160a01b0316836001600160a01b0316036108365760405162461bcd60e51b815260206004820152602160248201527f4552433732313a20617070726f76616c20746f2063757272656e74206f776e656044820152603960f91b60648201526084015b60405180910390fd5b336001600160a01b038216148061085257506108528133611ba1565b6108c45760405162461bcd60e51b815260206004820152603d60248201527f4552433732313a20617070726f76652063616c6c6572206973206e6f7420746f60448201527f6b656e206f776e6572206f7220617070726f76656420666f7220616c6c000000606482015260840161082d565b6108ce8383611fea565b505050565b336001600160a01b037f0000000000000000000000000000000000000000000000000000000000000000161461094d5760405163073e64fd60e21b81523360048201526001600160a01b037f000000000000000000000000000000000000000000000000000000000000000016602482015260440161082d565b6109578282612058565b5050565b610965338261206b565b6109815760405162461bcd60e51b815260040161082d90612fe9565b6108ce8383836120ca565b600d546001600160a01b031633146109d25760405162461bcd60e51b81526020600482015260096024820152682737ba1037bbb732b960b91b604482015260640161082d565b600d5460405147916000916001600160a01b039091169083908381818185875af1925050503d8060008114610a23576040519150601f19603f3d011682016040523d82523d6000602084013e610a28565b606091505b50509050806109575760405162461bcd60e51b81526020600482015260146024820152732330b4b632b2103a379039b2b7321022ba3432b960611b604482015260640161082d565b6108ce83838360405180602001604052806000815250610e02565b6000818152600260205260408120546001600160a01b0316806105745760405162461bcd60e51b8152602060048201526018602482015277115490cdcc8c4e881a5b9d985b1a59081d1bdad95b88125160421b604482015260640161082d565b60006001600160a01b038216610b555760405162461bcd60e51b815260206004820152602960248201527f4552433732313a2061646472657373207a65726f206973206e6f7420612076616044820152683634b21037bbb732b960b91b606482015260840161082d565b506001600160a01b031660009081526003602052604090205490565b60606001805461070f90612faf565b60106020526000908152604090208054600182018054919291610ba290612faf565b80601f0160208091040260200160405190810160405280929190818152602001828054610bce90612faf565b8015610c1b5780601f10610bf057610100808354040283529160200191610c1b565b820191906000526020600020905b815481529060010190602001808311610bfe57829003601f168201915b505050505090806002018054610c3090612faf565b80601f0160208091040260200160405190810160405280929190818152602001828054610c5c90612faf565b8015610ca95780601f10610c7e57610100808354040283529160200191610ca9565b820191906000526020600020905b815481529060010190602001808311610c8c57829003601f168201915b5050505050908060030154908060040154908060050154905086565b61095733838361222e565b601180548190610cdf90612faf565b80601f0160208091040260200160405190810160405280929190818152602001828054610d0b90612faf565b8015610d585780601f10610d2d57610100808354040283529160200191610d58565b820191906000526020600020905b815481529060010190602001808311610d3b57829003601f168201915b505050505090806001018054610d6d90612faf565b80601f0160208091040260200160405190810160405280929190818152602001828054610d9990612faf565b8015610de65780601f10610dbb57610100808354040283529160200191610de6565b820191906000526020600020905b815481529060010190602001808311610dc957829003601f168201915b5050505050908060020154908060030154908060040154905085565b610e0c338361206b565b610e285760405162461bcd60e51b815260040161082d90612fe9565b610e34848484846122fc565b50505050565b6060600f805480602002602001604051908101604052809291908181526020016000905b82821015610fdc57838290600052602060002090600602016040518060c001604052908160008201548152602001600182018054610e9b90612faf565b80601f0160208091040260200160405190810160405280929190818152602001828054610ec790612faf565b8015610f145780601f10610ee957610100808354040283529160200191610f14565b820191906000526020600020905b815481529060010190602001808311610ef757829003601f168201915b50505050508152602001600282018054610f2d90612faf565b80601f0160208091040260200160405190810160405280929190818152602001828054610f5990612faf565b8015610fa65780601f10610f7b57610100808354040283529160200191610fa6565b820191906000526020600020905b815481529060010190602001808311610f8957829003601f168201915b50505050508152602001600382015481526020016004820154815260200160058201548152505081526020019060010190610e5e565b50505050905090565b6000818152601060209081526040808320815160c0810190925280548252600181018054606095948401919061101a90612faf565b80601f016020809104026020016040519081016040528092919081815260200182805461104690612faf565b80156110935780601f1061106857610100808354040283529160200191611093565b820191906000526020600020905b81548152906001019060200180831161107657829003601f168201915b505050505081526020016002820180546110ac90612faf565b80601f01602080910402602001604051908101604052809291908181526020018280546110d890612faf565b80156111255780601f106110fa57610100808354040283529160200191611125565b820191906000526020600020905b81548152906001019060200180831161110857829003601f168201915b5050505050815260200160038201548152602001600482015481526020016005820154815250509050600061115d826060015161232f565b9050600061116e836080015161232f565b9050600061117f8460a0015161232f565b905060006111c585602001516111948961232f565b87604001518787876040516020016111b196959493929190613052565b6040516020818303038152906040526123c2565b90506000816040516020016111da919061320e565b60408051601f1981840301815291905298975050505050505050565b61122f6040518060c001604052806000815260200160608152602001606081526020016000815260200160008152602001600081525090565b3360009081526016602052604090205480156113b557601060008281526020019081526020016000206040518060c00160405290816000820154815260200160018201805461127d90612faf565b80601f01602080910402602001604051908101604052809291908181526020018280546112a990612faf565b80156112f65780601f106112cb576101008083540402835291602001916112f6565b820191906000526020600020905b8154815290600101906020018083116112d957829003601f168201915b5050505050815260200160028201805461130f90612faf565b80601f016020809104026020016040519081016040528092919081815260200182805461133b90612faf565b80156113885780601f1061135d57610100808354040283529160200191611388565b820191906000526020600020905b81548152906001019060200180831161136b57829003601f168201915b50505050508152602001600382015481526020016004820154815260200160058201548152505091505090565b6105746040518060c001604052806000815260200160608152602001606081526020016000815260200160008152602001600081525090565b5090565b336000908152601660209081526040808320548084526010835292819020815160608101909252603c80835290926114c992919061374e9083013982600101805461143c90612faf565b80601f016020809104026020016040519081016040528092919081815260200182805461146890612faf565b80156114b55780601f1061148a576101008083540402835291602001916114b5565b820191906000526020600020905b81548152906001019060200180831161149857829003601f168201915b50505050508360030154846005015461252c565b6115a16040518060400160405280601b81526020017f426f73732025732068617320257320485020616e6420257320414400000000008152506011600001805461151290612faf565b80601f016020809104026020016040519081016040528092919081815260200182805461153e90612faf565b801561158b5780601f106115605761010080835404028352916020019161158b565b820191906000526020600020905b81548152906001019060200180831161156e57829003601f168201915b505050505060116002015460116004015461252c565b600081600301541161161b5760405162461bcd60e51b815260206004820152603860248201527f4572726f723a2047616d65204f7665722c20636861726163746572206d75737460448201527f206861766520485020746f2061747461636b20626f73732e0000000000000000606482015260840161082d565b60135461167b5760405162461bcd60e51b815260206004820152602860248201527f4572726f723a20626f7373206d757374206861766520485020746f206174746160448201526731b5903137b9b99760c11b606482015260840161082d565b6005810154601354101561186a57600060135560408051808201909152601b81527f426f73732025732068617320257320485020616e6420257320414400000000006020820152601180546116d592919061151290612faf565b6117a06040518060400160405280601f81526020017f536f6c6469657220416e742025732068617320776f6e207468652067616d650081525082600101805461171d90612faf565b80601f016020809104026020016040519081016040528092919081815260200182805461174990612faf565b80156117965780601f1061176b57610100808354040283529160200191611796565b820191906000526020600020905b81548152906001019060200180831161177957829003601f168201915b5050505050612575565b6117e96040518060400160405280601d81526020017f54686520426f737320257320686173206c6f7374207468652067616d650000008152506011600001805461171d90612faf565b7f22eab1d320e837da74f0b4d9e86413d495558abaa6b7065ae3a698436619693c33838360010160405161181f939291906132d0565b60405180910390a16040517fba1013f2eeb88115830d7202c1879339e3f90ea456055440a8401a04e7ed406c9061185d9030906001906011906132d0565b60405180910390a1611880565b600581015460135461187c9190613316565b6013555b601554600382015410156119f257600081600301819055506118e06040518060400160405280601d81526020017f506c617965722025732068617320257320485020616e6420257320414400000081525082600101805461143c90612faf565b6119286040518060400160405280602081526020017f536f6c6469657220416e7420257320686173206c6f7374207468652067616d6581525082600101805461171d90612faf565b6119716040518060400160405280601c81526020017f54686520426f73732025732068617320576f6e207468652067616d65000000008152506011600001805461171d90612faf565b7fba1013f2eeb88115830d7202c1879339e3f90ea456055440a8401a04e7ed406c3383836001016040516119a7939291906132d0565b60405180910390a16040517f22eab1d320e837da74f0b4d9e86413d495558abaa6b7065ae3a698436619693c906119e59030906001906011906132d0565b60405180910390a1611a0a565b6015546003820154611a049190613316565b60038201555b60135460038201546040517f838ab28464562786a6c4ab2311964b82fa60bd9b14aa7e856af1f3f18d41a41492611a4992908252602082015260400190565b60405180910390a1611a75604051806060016040528060258152602001613693602591396013546125ba565b6109576040518060600160405280602881526020016136f86028913982600301546125ba565b600d546001600160a01b03163314611ae15760405162461bcd60e51b81526020600482015260096024820152682737ba1037bbb732b960b91b604482015260640161082d565b6006546008546009546040516305d3b1d360e41b81526004810192909252600160a01b830467ffffffffffffffff166024830152640100000000810461ffff16604483015263ffffffff808216606484015266010000000000009091041660848201526001600160a01b0390911690635d3b1d309060a4016020604051808303816000875af1158015611b78573d6000803e3d6000fd5b505050506040513d601f19601f82011682018060405250810190611b9c9190613329565b600b55565b6001600160a01b03918216600090815260056020908152604080832093909416825291909152205460ff1690565b600a8181548110611bdf57600080fd5b600091825260209091200154905081565b655af3107a400034811115611c475760405162461bcd60e51b815260206004820152601860248201527f4e6f7420656e6f756768204d6f6e657920746f20706169640000000000000000604482015260640161082d565b6000611c52600e5490565b9050611c5e33826125ff565b6040518060c00160405280848152602001600f8581548110611c8257611c82613342565b90600052602060002090600602016001018054611c9e90612faf565b80601f0160208091040260200160405190810160405280929190818152602001828054611cca90612faf565b8015611d175780601f10611cec57610100808354040283529160200191611d17565b820191906000526020600020905b815481529060010190602001808311611cfa57829003601f168201915b50505050508152602001600f8581548110611d3457611d34613342565b90600052602060002090600602016002018054611d5090612faf565b80601f0160208091040260200160405190810160405280929190818152602001828054611d7c90612faf565b8015611dc95780601f10611d9e57610100808354040283529160200191611dc9565b820191906000526020600020905b815481529060010190602001808311611dac57829003601f168201915b50505050508152602001600f8581548110611de657611de6613342565b9060005260206000209060060201600301548152602001600f8581548110611e1057611e10613342565b9060005260206000209060060201600401548152602001600f8581548110611e3a57611e3a613342565b6000918252602080832060056006909302019190910154909252838152601082526040902082518155908201516001820190611e7690826133a6565b5060408201516002820190611e8b90826133a6565b50606082015181600301556080820151816004015560a08201518160050155905050611ed06040518060600160405280602e8152602001613720602e91398285612619565b336000908152601660205260409020819055611ef0600e80546001019055565b60408051338152602081018390529081018490527f4bc303fd457a97b4691b9af582ce71868a3d258638c8d4f8c60988a0f0bfb8cd9060600160405180910390a1505050565b610e3484848484604051602401611f509493929190613466565b60408051601f198184030181529190526020810180516001600160e01b0316632e8d4b8d60e11b17905261265c565b80546001019055565b6000818152600260205260409020546001600160a01b0316611fe75760405162461bcd60e51b8152602060048201526018602482015277115490cdcc8c4e881a5b9d985b1a59081d1bdad95b88125160421b604482015260640161082d565b50565b600081815260046020526040902080546001600160a01b0319166001600160a01b038416908117909155819061201f82610a8b565b6001600160a01b03167f8c5be1e5ebec7d5bd14f71427d1e84f3dd0314c0f7b2291e5b200ac8c7c3b92560405160405180910390a45050565b80516108ce90600a906020840190612a14565b60008061207783610a8b565b9050806001600160a01b0316846001600160a01b0316148061209e575061209e8185611ba1565b806120c25750836001600160a01b03166120b784610792565b6001600160a01b0316145b949350505050565b826001600160a01b03166120dd82610a8b565b6001600160a01b0316146121035760405162461bcd60e51b815260040161082d906134b0565b6001600160a01b0382166121655760405162461bcd60e51b8152602060048201526024808201527f4552433732313a207472616e7366657220746f20746865207a65726f206164646044820152637265737360e01b606482015260840161082d565b826001600160a01b031661217882610a8b565b6001600160a01b03161461219e5760405162461bcd60e51b815260040161082d906134b0565b600081815260046020908152604080832080546001600160a01b03199081169091556001600160a01b0387811680865260038552838620805460001901905590871680865283862080546001019055868652600290945282852080549092168417909155905184937fddf252ad1be2c89b69c2b068fc378daa952ba7f163c4a11628f55a4df523b3ef91a4505050565b816001600160a01b0316836001600160a01b03160361228f5760405162461bcd60e51b815260206004820152601960248201527f4552433732313a20617070726f766520746f2063616c6c657200000000000000604482015260640161082d565b6001600160a01b03838116600081815260056020908152604080832094871680845294825291829020805460ff191686151590811790915591519182527f17307eab39ab6107e8899845ad3d59bd9653f200f220920489ca2b5937696c31910160405180910390a3505050565b6123078484846120ca565b6123138484848461267d565b610e345760405162461bcd60e51b815260040161082d906134f5565b6060600061233c8361277e565b600101905060008167ffffffffffffffff81111561235c5761235c612bcb565b6040519080825280601f01601f191660200182016040528015612386576020820181803683370190505b5090508181016020015b600019016f181899199a1a9b1b9c1cb0b131b232b360811b600a86061a8153600a850494508461239057509392505050565b805160609060008190036123e6575050604080516020810190915260008152919050565b600060036123f5836002613547565b6123ff919061355a565b61240a90600461357c565b90506000612419826020613547565b67ffffffffffffffff81111561243157612431612bcb565b6040519080825280601f01601f19166020018201604052801561245b576020820181803683370190505b50905060006040518060600160405280604081526020016136b8604091399050600181016020830160005b868110156124e7576003818a01810151603f601282901c8116860151600c83901c8216870151600684901c831688015192909316870151600891821b60ff94851601821b92841692909201901b91160160e01b835260049092019101612486565b50600386066001811461250157600281146125125761251e565b613d3d60f01b60011983015261251e565b603d60f81b6000198301525b505050918152949350505050565b610e34848484846040516024016125469493929190613593565b60408051601f198184030181529190526020810180516001600160e01b0316633d175f4b60e21b17905261265c565b610957828260405160240161258b9291906135cc565b60408051601f198184030181529190526020810180516001600160e01b0316634b5c427760e01b17905261265c565b61095782826040516024016125d09291906135f1565b60408051601f198184030181529190526020810180516001600160e01b0316632d839cb360e21b17905261265c565b610957828260405180602001604052806000815250612856565b6108ce83838360405160240161263193929190613613565b60408051601f198184030181529190526020810180516001600160e01b031663ca47c4eb60e01b1790525b60006a636f6e736f6c652e6c6f679050600080835160208501845afa505050565b60006001600160a01b0384163b1561277357604051630a85bd0160e11b81526001600160a01b0385169063150b7a02906126c1903390899088908890600401613638565b6020604051808303816000875af19250505080156126fc575060408051601f3d908101601f191682019092526126f991810190613675565b60015b612759573d80801561272a576040519150601f19603f3d011682016040523d82523d6000602084013e61272f565b606091505b5080516000036127515760405162461bcd60e51b815260040161082d906134f5565b805181602001fd5b6001600160e01b031916630a85bd0160e11b1490506120c2565b506001949350505050565b60008072184f03e93ff9f4daa797ed6e38ed64bf6a1f0160401b83106127bd5772184f03e93ff9f4daa797ed6e38ed64bf6a1f0160401b830492506040015b6d04ee2d6d415b85acef810000000083106127e9576d04ee2d6d415b85acef8100000000830492506020015b662386f26fc10000831061280757662386f26fc10000830492506010015b6305f5e100831061281f576305f5e100830492506008015b612710831061283357612710830492506004015b60648310612845576064830492506002015b600a83106105745760010192915050565b6128608383612889565b61286d600084848461267d565b6108ce5760405162461bcd60e51b815260040161082d906134f5565b6001600160a01b0382166128df5760405162461bcd60e51b815260206004820181905260248201527f4552433732313a206d696e7420746f20746865207a65726f2061646472657373604482015260640161082d565b6000818152600260205260409020546001600160a01b0316156129445760405162461bcd60e51b815260206004820152601c60248201527f4552433732313a20746f6b656e20616c7265616479206d696e74656400000000604482015260640161082d565b6000818152600260205260409020546001600160a01b0316156129a95760405162461bcd60e51b815260206004820152601c60248201527f4552433732313a20746f6b656e20616c7265616479206d696e74656400000000604482015260640161082d565b6001600160a01b038216600081815260036020908152604080832080546001019055848352600290915280822080546001600160a01b0319168417905551839291907fddf252ad1be2c89b69c2b068fc378daa952ba7f163c4a11628f55a4df523b3ef908290a45050565b828054828255906000526020600020908101928215612a4f579160200282015b82811115612a4f578251825591602001919060010190612a34565b506113ee9291505b808211156113ee5760008155600101612a57565b6001600160e01b031981168114611fe757600080fd5b600060208284031215612a9357600080fd5b8135612a9e81612a6b565b9392505050565b60005b83811015612ac0578181015183820152602001612aa8565b50506000910152565b60008151808452612ae1816020860160208601612aa5565b601f01601f19169290920160200192915050565b602081526000825160a06020840152612b1160c0840182612ac9565b90506020840151601f19848303016040850152612b2e8282612ac9565b9150506040840151606084015260608401516080840152608084015160a08401528091505092915050565b602081526000612a9e6020830184612ac9565b600060208284031215612b7e57600080fd5b5035919050565b80356001600160a01b0381168114612b9c57600080fd5b919050565b60008060408385031215612bb457600080fd5b612bbd83612b85565b946020939093013593505050565b634e487b7160e01b600052604160045260246000fd5b604051601f8201601f1916810167ffffffffffffffff81118282101715612c0a57612c0a612bcb565b604052919050565b60008060408385031215612c2557600080fd5b8235915060208084013567ffffffffffffffff80821115612c4557600080fd5b818601915086601f830112612c5957600080fd5b813581811115612c6b57612c6b612bcb565b8060051b9150612c7c848301612be1565b8181529183018401918481019089841115612c9657600080fd5b938501935b83851015612cb457843582529385019390850190612c9b565b8096505050505050509250929050565b600080600060608486031215612cd957600080fd5b612ce284612b85565b9250612cf060208501612b85565b9150604084013590509250925092565b600060208284031215612d1257600080fd5b612a9e82612b85565b86815260c060208201526000612d3460c0830188612ac9565b8281036040840152612d468188612ac9565b60608401969096525050608081019290925260a0909101529392505050565b60008060408385031215612d7857600080fd5b612d8183612b85565b915060208301358015158114612d9657600080fd5b809150509250929050565b60a081526000612db460a0830188612ac9565b8281036020840152612dc68188612ac9565b60408401969096525050606081019290925260809091015292915050565b60008060008060808587031215612dfa57600080fd5b612e0385612b85565b93506020612e12818701612b85565b935060408601359250606086013567ffffffffffffffff80821115612e3657600080fd5b818801915088601f830112612e4a57600080fd5b813581811115612e5c57612e5c612bcb565b612e6e601f8201601f19168501612be1565b91508082528984828501011115612e8457600080fd5b808484018584013760008482840101525080935050505092959194509250565b805182526000602082015160c06020850152612ec360c0850182612ac9565b905060408301518482036040860152612edc8282612ac9565b915050606083015160608501526080830151608085015260a083015160a08501528091505092915050565b6000602080830181845280855180835260408601915060408160051b870101925083870160005b82811015612f5c57603f19888603018452612f4a858351612ea4565b94509285019290850190600101612f2e565b5092979650505050505050565b602081526000612a9e6020830184612ea4565b60008060408385031215612f8f57600080fd5b612f9883612b85565b9150612fa660208401612b85565b90509250929050565b600181811c90821680612fc357607f821691505b602082108103612fe357634e487b7160e01b600052602260045260246000fd5b50919050565b6020808252602d908201527f4552433732313a2063616c6c6572206973206e6f7420746f6b656e206f776e6560408201526c1c881bdc88185c1c1c9bdd9959609a1b606082015260800190565b60008151613048818560208601612aa5565b9290920192915050565b693d913730b6b2911d101160b11b8152865160009061307881600a850160208c01612aa5565b6a01016969027232a10119d160ad1b600a9184019182015287516130a3816015840160208c01612aa5565b7f222c20226465736372697074696f6e223a20224120536f6c6469657220416e74601592909101918201527f20436f6d626174204e4654204d65746176657273652047616d65222c2022226960358201526e6d616765223a2022697066733a2f2f60881b6055820152865161311f816064840160208b01612aa5565b7f222c202261747472696275746573223a205b207b202274726169745f74797065606492909101918201527f223a20224865616c746820506f696e7473222c202276616c7565223a2000000060848201526132016131f16131eb6131ac6131a661318c60a187018c613036565b6d16101136b0bc2fbb30b63ab2911d60911b8152600e0190565b89613036565b7f7d2c207b202274726169745f74797065223a202241747461636b2044616d616781526c032911610113b30b63ab2911d1609d1b6020820152602d0190565b86613036565b637d205d7d60e01b815260040190565b9998505050505050505050565b7f646174613a6170706c69636174696f6e2f6a736f6e3b6261736536342c00000081526000825161324681601d850160208701612aa5565b91909101601d0192915050565b6000815461326081612faf565b80855260206001838116801561327d5760018114613297576132c5565b60ff1985168884015283151560051b8801830195506132c5565b866000528260002060005b858110156132bd5781548a82018601529083019084016132a2565b890184019650505b505050505092915050565b60018060a01b03841681528260208201526060604082015260006132f76060830184613253565b95945050505050565b634e487b7160e01b600052601160045260246000fd5b8181038181111561057457610574613300565b60006020828403121561333b57600080fd5b5051919050565b634e487b7160e01b600052603260045260246000fd5b601f8211156108ce57600081815260208120601f850160051c8101602086101561337f5750805b601f850160051c820191505b8181101561339e5782815560010161338b565b505050505050565b815167ffffffffffffffff8111156133c0576133c0612bcb565b6133d4816133ce8454612faf565b84613358565b602080601f83116001811461340957600084156133f15750858301515b600019600386901b1c1916600185901b17855561339e565b600085815260208120601f198616915b8281101561343857888601518255948401946001909101908401613419565b50858210156134565787850151600019600388901b60f8161c191681555b5050505050600190811b01905550565b6080815260006134796080830187612ac9565b828103602084015261348b8187612ac9565b905084604084015282810360608401526134a58185612ac9565b979650505050505050565b60208082526025908201527f4552433732313a207472616e736665722066726f6d20696e636f72726563742060408201526437bbb732b960d91b606082015260800190565b60208082526032908201527f4552433732313a207472616e7366657220746f206e6f6e20455243373231526560408201527131b2b4bb32b91034b6b83632b6b2b73a32b960711b606082015260800190565b8082018082111561057457610574613300565b60008261357757634e487b7160e01b600052601260045260246000fd5b500490565b808202811582820484141761057457610574613300565b6080815260006135a66080830187612ac9565b82810360208401526135b88187612ac9565b604084019590955250506060015292915050565b6040815260006135df6040830185612ac9565b82810360208401526132f78185612ac9565b6040815260006136046040830185612ac9565b90508260208301529392505050565b6060815260006136266060830186612ac9565b60208301949094525060400152919050565b6001600160a01b038581168252841660208201526040810183905260806060820181905260009061366b90830184612ac9565b9695505050505050565b60006020828403121561368757600080fd5b8151612a9e81612a6b56fe506c617965722061747461636b656420626f73732e204e657720626f73732068703a2025734142434445464748494a4b4c4d4e4f505152535455565758595a6162636465666768696a6b6c6d6e6f707172737475767778797a303132333435363738392b2f426f73732061747461636b656420706c617965722e204e657720706c617965722068703a2025730a4d696e746564204e465420772f20746f6b656e496420257320616e6420636861726163746572496e6465782025730a506c6179657220772f206368617261637465722025732061626f757420746f2061747461636b2e2048617320257320485020616e64202573204144a26469706673582212209d8f2f42add7b436f08af9aa79abdfd49630b1832fad8eda57006fa0fdd1ba9464736f6c63430008110033446f6e6520696e697469616c697a696e6720257320772f2048502025732c20696d67202573446f6e6520696e697469616c697a696e6720626f737320257320772f2048502025732c20696d67202573",
  "linkReferences": {},
  "deployedLinkReferences": {}
}