{
  "_format": "hh-sol-artifact-1",
  "contractName": "NFTMarketplace",
  "sourceName": "contracts/NFTMarketplace.sol",
  "abi": [
    {
      "inputs": [],
      "stateMutability": "nonpayable",
      "type": "constructor"
    },
    {
      "anonymous": false,
      "inputs": [
        {
          "indexed": true,
          "internalType": "address",
          "name": "owner",
          "type": "address"
        },
        {
          "indexed": true,
          "internalType": "address",
          "name": "approved",
          "type": "address"
        },
        {
          "indexed": true,
          "internalType": "uint256",
          "name": "tokenId",
          "type": "uint256"
        }
      ],
      "name": "Approval",
      "type": "event"
    },
    {
      "anonymous": false,
      "inputs": [
        {
          "indexed": true,
          "internalType": "address",
          "name": "owner",
          "type": "address"
        },
        {
          "indexed": true,
          "internalType": "address",
          "name": "operator",
          "type": "address"
        },
        {
          "indexed": false,
          "internalType": "bool",
          "name": "approved",
          "type": "bool"
        }
      ],
      "name": "ApprovalForAll",
      "type": "event"
    },
    {
      "anonymous": false,
      "inputs": [
        {
          "indexed": false,
          "internalType": "uint256",
          "name": "_fromTokenId",
          "type": "uint256"
        },
        {
          "indexed": false,
          "internalType": "uint256",
          "name": "_toTokenId",
          "type": "uint256"
        }
      ],
      "name": "BatchMetadataUpdate",
      "type": "event"
    },
    {
      "anonymous": false,
      "inputs": [
        {
          "indexed": true,
          "internalType": "uint256",
          "name": "tokenId",
          "type": "uint256"
        },
        {
          "indexed": false,
          "internalType": "address",
          "name": "seller",
          "type": "address"
        },
        {
          "indexed": false,
          "internalType": "address",
          "name": "owner",
          "type": "address"
        },
        {
          "indexed": false,
          "internalType": "uint256",
          "name": "price",
          "type": "uint256"
        },
        {
          "indexed": false,
          "internalType": "bool",
          "name": "sold",
          "type": "bool"
        }
      ],
      "name": "MarketItemCreated",
      "type": "event"
    },
    {
      "anonymous": false,
      "inputs": [
        {
          "indexed": false,
          "internalType": "uint256",
          "name": "_tokenId",
          "type": "uint256"
        }
      ],
      "name": "MetadataUpdate",
      "type": "event"
    },
    {
      "anonymous": false,
      "inputs": [
        {
          "indexed": true,
          "internalType": "address",
          "name": "from",
          "type": "address"
        },
        {
          "indexed": true,
          "internalType": "address",
          "name": "to",
          "type": "address"
        },
        {
          "indexed": true,
          "internalType": "uint256",
          "name": "tokenId",
          "type": "uint256"
        }
      ],
      "name": "Transfer",
      "type": "event"
    },
    {
      "inputs": [
        {
          "internalType": "address",
          "name": "to",
          "type": "address"
        },
        {
          "internalType": "uint256",
          "name": "tokenId",
          "type": "uint256"
        }
      ],
      "name": "approve",
      "outputs": [],
      "stateMutability": "nonpayable",
      "type": "function"
    },
    {
      "inputs": [
        {
          "internalType": "address",
          "name": "owner",
          "type": "address"
        }
      ],
      "name": "balanceOf",
      "outputs": [
        {
          "internalType": "uint256",
          "name": "",
          "type": "uint256"
        }
      ],
      "stateMutability": "view",
      "type": "function"
    },
    {
      "inputs": [
        {
          "internalType": "uint256",
          "name": "tokenId",
          "type": "uint256"
        }
      ],
      "name": "createMarketSale",
      "outputs": [],
      "stateMutability": "payable",
      "type": "function"
    },
    {
      "inputs": [
        {
          "internalType": "string",
          "name": "tokenURI",
          "type": "string"
        },
        {
          "internalType": "uint256",
          "name": "price",
          "type": "uint256"
        }
      ],
      "name": "createToken",
      "outputs": [
        {
          "internalType": "uint256",
          "name": "",
          "type": "uint256"
        }
      ],
      "stateMutability": "payable",
      "type": "function"
    },
    {
      "inputs": [],
      "name": "fetchItemsListed",
      "outputs": [
        {
          "components": [
            {
              "internalType": "uint256",
              "name": "tokenId",
              "type": "uint256"
            },
            {
              "internalType": "address payable",
              "name": "seller",
              "type": "address"
            },
            {
              "internalType": "address payable",
              "name": "owner",
              "type": "address"
            },
            {
              "internalType": "uint256",
              "name": "price",
              "type": "uint256"
            },
            {
              "internalType": "bool",
              "name": "sold",
              "type": "bool"
            }
          ],
          "internalType": "struct NFTMarketplace.MarketItem[]",
          "name": "",
          "type": "tuple[]"
        }
      ],
      "stateMutability": "view",
      "type": "function"
    },
    {
      "inputs": [],
      "name": "fetchMarketItems",
      "outputs": [
        {
          "components": [
            {
              "internalType": "uint256",
              "name": "tokenId",
              "type": "uint256"
            },
            {
              "internalType": "address payable",
              "name": "seller",
              "type": "address"
            },
            {
              "internalType": "address payable",
              "name": "owner",
              "type": "address"
            },
            {
              "internalType": "uint256",
              "name": "price",
              "type": "uint256"
            },
            {
              "internalType": "bool",
              "name": "sold",
              "type": "bool"
            }
          ],
          "internalType": "struct NFTMarketplace.MarketItem[]",
          "name": "",
          "type": "tuple[]"
        }
      ],
      "stateMutability": "view",
      "type": "function"
    },
    {
      "inputs": [],
      "name": "fetchMyNFTs",
      "outputs": [
        {
          "components": [
            {
              "internalType": "uint256",
              "name": "tokenId",
              "type": "uint256"
            },
            {
              "internalType": "address payable",
              "name": "seller",
              "type": "address"
            },
            {
              "internalType": "address payable",
              "name": "owner",
              "type": "address"
            },
            {
              "internalType": "uint256",
              "name": "price",
              "type": "uint256"
            },
            {
              "internalType": "bool",
              "name": "sold",
              "type": "bool"
            }
          ],
          "internalType": "struct NFTMarketplace.MarketItem[]",
          "name": "",
          "type": "tuple[]"
        }
      ],
      "stateMutability": "view",
      "type": "function"
    },
    {
      "inputs": [
        {
          "internalType": "uint256",
          "name": "tokenId",
          "type": "uint256"
        }
      ],
      "name": "getApproved",
      "outputs": [
        {
          "internalType": "address",
          "name": "",
          "type": "address"
        }
      ],
      "stateMutability": "view",
      "type": "function"
    },
    {
      "inputs": [],
      "name": "getListingPrice",
      "outputs": [
        {
          "internalType": "uint256",
          "name": "",
          "type": "uint256"
        }
      ],
      "stateMutability": "view",
      "type": "function"
    },
    {
      "inputs": [
        {
          "internalType": "address",
          "name": "owner",
          "type": "address"
        },
        {
          "internalType": "address",
          "name": "operator",
          "type": "address"
        }
      ],
      "name": "isApprovedForAll",
      "outputs": [
        {
          "internalType": "bool",
          "name": "",
          "type": "bool"
        }
      ],
      "stateMutability": "view",
      "type": "function"
    },
    {
      "inputs": [],
      "name": "name",
      "outputs": [
        {
          "internalType": "string",
          "name": "",
          "type": "string"
        }
      ],
      "stateMutability": "view",
      "type": "function"
    },
    {
      "inputs": [
        {
          "internalType": "uint256",
          "name": "tokenId",
          "type": "uint256"
        }
      ],
      "name": "ownerOf",
      "outputs": [
        {
          "internalType": "address",
          "name": "",
          "type": "address"
        }
      ],
      "stateMutability": "view",
      "type": "function"
    },
    {
      "inputs": [
        {
          "internalType": "uint256",
          "name": "tokenId",
          "type": "uint256"
        },
        {
          "internalType": "uint256",
          "name": "price",
          "type": "uint256"
        }
      ],
      "name": "resellToken",
      "outputs": [],
      "stateMutability": "payable",
      "type": "function"
    },
    {
      "inputs": [
        {
          "internalType": "address",
          "name": "from",
          "type": "address"
        },
        {
          "internalType": "address",
          "name": "to",
          "type": "address"
        },
        {
          "internalType": "uint256",
          "name": "tokenId",
          "type": "uint256"
        }
      ],
      "name": "safeTransferFrom",
      "outputs": [],
      "stateMutability": "nonpayable",
      "type": "function"
    },
    {
      "inputs": [
        {
          "internalType": "address",
          "name": "from",
          "type": "address"
        },
        {
          "internalType": "address",
          "name": "to",
          "type": "address"
        },
        {
          "internalType": "uint256",
          "name": "tokenId",
          "type": "uint256"
        },
        {
          "internalType": "bytes",
          "name": "data",
          "type": "bytes"
        }
      ],
      "name": "safeTransferFrom",
      "outputs": [],
      "stateMutability": "nonpayable",
      "type": "function"
    },
    {
      "inputs": [
        {
          "internalType": "address",
          "name": "operator",
          "type": "address"
        },
        {
          "internalType": "bool",
          "name": "approved",
          "type": "bool"
        }
      ],
      "name": "setApprovalForAll",
      "outputs": [],
      "stateMutability": "nonpayable",
      "type": "function"
    },
    {
      "inputs": [
        {
          "internalType": "bytes4",
          "name": "interfaceId",
          "type": "bytes4"
        }
      ],
      "name": "supportsInterface",
      "outputs": [
        {
          "internalType": "bool",
          "name": "",
          "type": "bool"
        }
      ],
      "stateMutability": "view",
      "type": "function"
    },
    {
      "inputs": [],
      "name": "symbol",
      "outputs": [
        {
          "internalType": "string",
          "name": "",
          "type": "string"
        }
      ],
      "stateMutability": "view",
      "type": "function"
    },
    {
      "inputs": [
        {
          "internalType": "uint256",
          "name": "tokenId",
          "type": "uint256"
        }
      ],
      "name": "tokenURI",
      "outputs": [
        {
          "internalType": "string",
          "name": "",
          "type": "string"
        }
      ],
      "stateMutability": "view",
      "type": "function"
    },
    {
      "inputs": [
        {
          "internalType": "address",
          "name": "from",
          "type": "address"
        },
        {
          "internalType": "address",
          "name": "to",
          "type": "address"
        },
        {
          "internalType": "uint256",
          "name": "tokenId",
          "type": "uint256"
        }
      ],
      "name": "transferFrom",
      "outputs": [],
      "stateMutability": "nonpayable",
      "type": "function"
    },
    {
      "inputs": [
        {
          "internalType": "uint256",
          "name": "_listingPrice",
          "type": "uint256"
        }
      ],
      "name": "updateListingPrice",
      "outputs": [],
      "stateMutability": "payable",
      "type": "function"
    },
    {
      "inputs": [],
      "name": "withdraw",
      "outputs": [],
      "stateMutability": "nonpayable",
      "type": "function"
    }
  ],
  "bytecode": "0x608060405266038d7ea4c680006009553480156200001c57600080fd5b506040518060400160405280601781526020017f536f6c6469657220416e74204d61726b6574706c6163650000000000000000008152506040518060400160405280600381526020016210539560ea1b81525081600090816200008091906200014f565b5060016200008f82826200014f565b5050600a80546001600160a01b03191633179055506200021b565b634e487b7160e01b600052604160045260246000fd5b600181811c90821680620000d557607f821691505b602082108103620000f657634e487b7160e01b600052602260045260246000fd5b50919050565b601f8211156200014a57600081815260208120601f850160051c81016020861015620001255750805b601f850160051c820191505b81811015620001465782815560010162000131565b5050505b505050565b81516001600160401b038111156200016b576200016b620000aa565b62000183816200017c8454620000c0565b84620000fc565b602080601f831160018114620001bb5760008415620001a25750858301515b600019600386901b1c1916600185901b17855562000146565b600085815260208120601f198616915b82811015620001ec57888601518255948401946001909101908401620001cb565b50858210156200020b5787850151600019600388901b60f8161c191681555b5050505050600190811b01905550565b6123fe806200022b6000396000f3fe6080604052600436106101355760003560e01c80636352211e116100ab578063ae677aa31161006f578063ae677aa314610333578063b88d4fde14610346578063be9af53614610366578063c87b56dd14610379578063e219fc7514610399578063e985e9c5146103ac57600080fd5b80636352211e146102ab57806370a08231146102cb57806372b3b620146102eb57806395d89b41146102fe578063a22cb4651461031357600080fd5b806312e85585116100fd57806312e855851461020d578063202e37401461022c57806323b872dd146102415780633ccfd60b1461026157806342842e0e1461027657806345f8fa801461029657600080fd5b806301ffc9a71461013a57806306fdde031461016f578063081812fc14610191578063095ea7b3146101c95780630f08efe0146101eb575b600080fd5b34801561014657600080fd5b5061015a610155366004611cc0565b6103f5565b60405190151581526020015b60405180910390f35b34801561017b57600080fd5b50610184610420565b6040516101669190611d2d565b34801561019d57600080fd5b506101b16101ac366004611d40565b6104b2565b6040516001600160a01b039091168152602001610166565b3480156101d557600080fd5b506101e96101e4366004611d75565b6104d9565b005b3480156101f757600080fd5b506102006105f3565b6040516101669190611d9f565b34801561021957600080fd5b506009545b604051908152602001610166565b34801561023857600080fd5b5061020061078a565b34801561024d57600080fd5b506101e961025c366004611e1b565b61095e565b34801561026d57600080fd5b506101e961098f565b34801561028257600080fd5b506101e9610291366004611e1b565b610a77565b3480156102a257600080fd5b50610200610a92565b3480156102b757600080fd5b506101b16102c6366004611d40565b610c66565b3480156102d757600080fd5b5061021e6102e6366004611e57565b610cc6565b61021e6102f9366004611efe565b610d4c565b34801561030a57600080fd5b50610184610d8e565b34801561031f57600080fd5b506101e961032e366004611f57565b610d9d565b6101e9610341366004611d40565b610da8565b34801561035257600080fd5b506101e9610361366004611f93565b610e20565b6101e9610374366004611d40565b610e58565b34801561038557600080fd5b50610184610394366004611d40565b610fbd565b6101e96103a736600461200f565b6110cd565b3480156103b857600080fd5b5061015a6103c7366004612031565b6001600160a01b03918216600090815260056020908152604080832093909416825291909152205460ff1690565b60006001600160e01b03198216632483248360e11b148061041a575061041a826111c5565b92915050565b60606000805461042f90612064565b80601f016020809104026020016040519081016040528092919081815260200182805461045b90612064565b80156104a85780601f1061047d576101008083540402835291602001916104a8565b820191906000526020600020905b81548152906001019060200180831161048b57829003601f168201915b5050505050905090565b60006104bd82611215565b506000908152600460205260409020546001600160a01b031690565b60006104e482610c66565b9050806001600160a01b0316836001600160a01b0316036105565760405162461bcd60e51b815260206004820152602160248201527f4552433732313a20617070726f76616c20746f2063757272656e74206f776e656044820152603960f91b60648201526084015b60405180910390fd5b336001600160a01b0382161480610572575061057281336103c7565b6105e45760405162461bcd60e51b815260206004820152603d60248201527f4552433732313a20617070726f76652063616c6c6572206973206e6f7420746f60448201527f6b656e206f776e6572206f7220617070726f76656420666f7220616c6c000000606482015260840161054d565b6105ee8383611277565b505050565b6060600061060060075490565b9050600061060d60085490565b60075461061a91906120b4565b90506000808267ffffffffffffffff81111561063857610638611e72565b60405190808252806020026020018201604052801561069157816020015b6040805160a0810182526000808252602080830182905292820181905260608201819052608082015282526000199092019101816106565790505b50905060005b848110156107815730600b60006106af8460016120c7565b81526020810191909152604001600020600201546001600160a01b03160361076f5760006106de8260016120c7565b6000818152600b6020908152604091829020825160a0810184528154815260018201546001600160a01b039081169382019390935260028201549092169282019290925260038201546060820152600482015460ff161515608082015285519293509091859087908110610754576107546120da565b602090810291909101015261076a6001866120c7565b945050505b80610779816120f0565b915050610697565b50949350505050565b6060600061079760075490565b905060008060005b838110156107f95733600b60006107b78460016120c7565b81526020810191909152604001600020600201546001600160a01b0316036107e7576107e46001846120c7565b92505b806107f1816120f0565b91505061079f565b5060008267ffffffffffffffff81111561081557610815611e72565b60405190808252806020026020018201604052801561086e57816020015b6040805160a0810182526000808252602080830182905292820181905260608201819052608082015282526000199092019101816108335790505b50905060005b848110156107815733600b600061088c8460016120c7565b81526020810191909152604001600020600201546001600160a01b03160361094c5760006108bb8260016120c7565b6000818152600b6020908152604091829020825160a0810184528154815260018201546001600160a01b039081169382019390935260028201549092169282019290925260038201546060820152600482015460ff161515608082015285519293509091859087908110610931576109316120da565b60209081029190910101526109476001866120c7565b945050505b80610956816120f0565b915050610874565b61096833826112e5565b6109845760405162461bcd60e51b815260040161054d90612109565b6105ee838383611363565b600a546001600160a01b031633146109d55760405162461bcd60e51b81526020600482015260096024820152682737ba1037bbb732b960b91b604482015260640161054d565b600a5460405147916000916001600160a01b039091169083908381818185875af1925050503d8060008114610a26576040519150601f19603f3d011682016040523d82523d6000602084013e610a2b565b606091505b5050905080610a735760405162461bcd60e51b81526020600482015260146024820152732330b4b632b2103a379039b2b7321022ba3432b960611b604482015260640161054d565b5050565b6105ee83838360405180602001604052806000815250610e20565b60606000610a9f60075490565b905060008060005b83811015610b015733600b6000610abf8460016120c7565b81526020810191909152604001600020600101546001600160a01b031603610aef57610aec6001846120c7565b92505b80610af9816120f0565b915050610aa7565b5060008267ffffffffffffffff811115610b1d57610b1d611e72565b604051908082528060200260200182016040528015610b7657816020015b6040805160a081018252600080825260208083018290529282018190526060820181905260808201528252600019909201910181610b3b5790505b50905060005b848110156107815733600b6000610b948460016120c7565b81526020810191909152604001600020600101546001600160a01b031603610c54576000610bc38260016120c7565b6000818152600b6020908152604091829020825160a0810184528154815260018201546001600160a01b039081169382019390935260028201549092169282019290925260038201546060820152600482015460ff161515608082015285519293509091859087908110610c3957610c396120da565b6020908102919091010152610c4f6001866120c7565b945050505b80610c5e816120f0565b915050610b7c565b6000818152600260205260408120546001600160a01b03168061041a5760405162461bcd60e51b8152602060048201526018602482015277115490cdcc8c4e881a5b9d985b1a59081d1bdad95b88125160421b604482015260640161054d565b60006001600160a01b038216610d305760405162461bcd60e51b815260206004820152602960248201527f4552433732313a2061646472657373207a65726f206973206e6f7420612076616044820152683634b21037bbb732b960b91b606482015260840161054d565b506001600160a01b031660009081526003602052604090205490565b6000610d5c600780546001019055565b6000610d6760075490565b9050610d7333826114c7565b610d7d8185611652565b610d87818461171d565b9392505050565b60606001805461042f90612064565b610a73338383611873565b600a546001600160a01b03163314610e1b5760405162461bcd60e51b815260206004820152603060248201527f4f6e6c79206d61726b6574706c616365206f776e65722063616e20757064617460448201526f32903634b9ba34b73390383934b1b29760811b606482015260840161054d565b600955565b610e2a33836112e5565b610e465760405162461bcd60e51b815260040161054d90612109565b610e5284848484611941565b50505050565b6000818152600b6020526040902060038101546001909101546001600160a01b0316348214610ef1576040805162461bcd60e51b81526020600482015260248101919091527f506c65617365207375626d6974207468652061736b696e67207072696365206960448201527f6e206f7264657220746f20636f6d706c65746520746865207075726368617365606482015260840161054d565b6000838152600b602052604090206002810180546001600160a01b0319908116331790915560048201805460ff1916600190811790915590910180549091169055610f40600880546001019055565b610f4b303385611363565b600a546009546040516001600160a01b039092169181156108fc0291906000818181858888f19350505050158015610f87573d6000803e3d6000fd5b506040516001600160a01b038216903480156108fc02916000818181858888f19350505050158015610e52573d6000803e3d6000fd5b6060610fc882611215565b60008281526006602052604081208054610fe190612064565b80601f016020809104026020016040519081016040528092919081815260200182805461100d90612064565b801561105a5780601f1061102f5761010080835404028352916020019161105a565b820191906000526020600020905b81548152906001019060200180831161103d57829003601f168201915b50505050509050600061107860408051602081019091526000815290565b9050805160000361108a575092915050565b8151156110bc5780826040516020016110a4929190612156565b60405160208183030381529060405292505050919050565b6110c584611974565b949350505050565b6000828152600b60205260409020600201546001600160a01b031633146111495760405162461bcd60e51b815260206004820152602a60248201527f4f6e6c79206974656d206f776e65722063616e20706572666f726d20746869736044820152691037b832b930ba34b7b760b11b606482015260840161054d565b600954341461116a5760405162461bcd60e51b815260040161054d90612185565b6000828152600b6020526040902060048101805460ff19169055600381018290556001810180546001600160a01b0319908116331790915560029091018054909116301790556111ba60086119e7565b610a73333084611363565b60006001600160e01b031982166380ac58cd60e01b14806111f657506001600160e01b03198216635b5e139f60e01b145b8061041a57506301ffc9a760e01b6001600160e01b031983161461041a565b6000818152600260205260409020546001600160a01b03166112745760405162461bcd60e51b8152602060048201526018602482015277115490cdcc8c4e881a5b9d985b1a59081d1bdad95b88125160421b604482015260640161054d565b50565b600081815260046020526040902080546001600160a01b0319166001600160a01b03841690811790915581906112ac82610c66565b6001600160a01b03167f8c5be1e5ebec7d5bd14f71427d1e84f3dd0314c0f7b2291e5b200ac8c7c3b92560405160405180910390a45050565b6000806112f183610c66565b9050806001600160a01b0316846001600160a01b0316148061133857506001600160a01b0380821660009081526005602090815260408083209388168352929052205460ff165b806110c55750836001600160a01b0316611351846104b2565b6001600160a01b031614949350505050565b826001600160a01b031661137682610c66565b6001600160a01b03161461139c5760405162461bcd60e51b815260040161054d906121c9565b6001600160a01b0382166113fe5760405162461bcd60e51b8152602060048201526024808201527f4552433732313a207472616e7366657220746f20746865207a65726f206164646044820152637265737360e01b606482015260840161054d565b826001600160a01b031661141182610c66565b6001600160a01b0316146114375760405162461bcd60e51b815260040161054d906121c9565b600081815260046020908152604080832080546001600160a01b03199081169091556001600160a01b0387811680865260038552838620805460001901905590871680865283862080546001019055868652600290945282852080549092168417909155905184937fddf252ad1be2c89b69c2b068fc378daa952ba7f163c4a11628f55a4df523b3ef91a4505050565b6001600160a01b03821661151d5760405162461bcd60e51b815260206004820181905260248201527f4552433732313a206d696e7420746f20746865207a65726f2061646472657373604482015260640161054d565b6000818152600260205260409020546001600160a01b0316156115825760405162461bcd60e51b815260206004820152601c60248201527f4552433732313a20746f6b656e20616c7265616479206d696e74656400000000604482015260640161054d565b6000818152600260205260409020546001600160a01b0316156115e75760405162461bcd60e51b815260206004820152601c60248201527f4552433732313a20746f6b656e20616c7265616479206d696e74656400000000604482015260640161054d565b6001600160a01b038216600081815260036020908152604080832080546001019055848352600290915280822080546001600160a01b0319168417905551839291907fddf252ad1be2c89b69c2b068fc378daa952ba7f163c4a11628f55a4df523b3ef908290a45050565b6000828152600260205260409020546001600160a01b03166116cd5760405162461bcd60e51b815260206004820152602e60248201527f45524337323155524953746f726167653a2055524920736574206f66206e6f6e60448201526d32bc34b9ba32b73a103a37b5b2b760911b606482015260840161054d565b60008281526006602052604090206116e5828261225c565b506040518281527ff8e1a15aba9398e019f0b49df1a4fde98ee17ae345cb5f6b5e2c27f5033e8ce79060200160405180910390a15050565b6000811161176d5760405162461bcd60e51b815260206004820152601c60248201527f5072696365206d757374206265206174206c6561737420312077656900000000604482015260640161054d565b600954341461178e5760405162461bcd60e51b815260040161054d90612185565b6040805160a08101825283815233602080830182815230848601818152606086018881526000608088018181528b8252600b909652979097209551865591516001860180546001600160a01b03199081166001600160a01b0393841617909155925160028701805490941691161790915593516003840155516004909201805460ff1916921515929092179091556118269184611363565b604080513381523060208201529081018290526000606082015282907fb640004f1d14576d0c209e240cad0410e0d8c0c33a09375861fbadae2588a98d9060800160405180910390a25050565b816001600160a01b0316836001600160a01b0316036118d45760405162461bcd60e51b815260206004820152601960248201527f4552433732313a20617070726f766520746f2063616c6c657200000000000000604482015260640161054d565b6001600160a01b03838116600081815260056020908152604080832094871680845294825291829020805460ff191686151590811790915591519182527f17307eab39ab6107e8899845ad3d59bd9653f200f220920489ca2b5937696c31910160405180910390a3505050565b61194c848484611363565b61195884848484611a3e565b610e525760405162461bcd60e51b815260040161054d9061231c565b606061197f82611215565b600061199660408051602081019091526000815290565b905060008151116119b65760405180602001604052806000815250610d87565b806119c084611b3f565b6040516020016119d1929190612156565b6040516020818303038152906040529392505050565b805480611a365760405162461bcd60e51b815260206004820152601b60248201527f436f756e7465723a2064656372656d656e74206f766572666c6f770000000000604482015260640161054d565b600019019055565b60006001600160a01b0384163b15611b3457604051630a85bd0160e11b81526001600160a01b0385169063150b7a0290611a8290339089908890889060040161236e565b6020604051808303816000875af1925050508015611abd575060408051601f3d908101601f19168201909252611aba918101906123ab565b60015b611b1a573d808015611aeb576040519150601f19603f3d011682016040523d82523d6000602084013e611af0565b606091505b508051600003611b125760405162461bcd60e51b815260040161054d9061231c565b805181602001fd5b6001600160e01b031916630a85bd0160e11b1490506110c5565b506001949350505050565b60606000611b4c83611bd2565b600101905060008167ffffffffffffffff811115611b6c57611b6c611e72565b6040519080825280601f01601f191660200182016040528015611b96576020820181803683370190505b5090508181016020015b600019016f181899199a1a9b1b9c1cb0b131b232b360811b600a86061a8153600a8504945084611ba057509392505050565b60008072184f03e93ff9f4daa797ed6e38ed64bf6a1f0160401b8310611c115772184f03e93ff9f4daa797ed6e38ed64bf6a1f0160401b830492506040015b6d04ee2d6d415b85acef81000000008310611c3d576d04ee2d6d415b85acef8100000000830492506020015b662386f26fc100008310611c5b57662386f26fc10000830492506010015b6305f5e1008310611c73576305f5e100830492506008015b6127108310611c8757612710830492506004015b60648310611c99576064830492506002015b600a831061041a5760010192915050565b6001600160e01b03198116811461127457600080fd5b600060208284031215611cd257600080fd5b8135610d8781611caa565b60005b83811015611cf8578181015183820152602001611ce0565b50506000910152565b60008151808452611d19816020860160208601611cdd565b601f01601f19169290920160200192915050565b602081526000610d876020830184611d01565b600060208284031215611d5257600080fd5b5035919050565b80356001600160a01b0381168114611d7057600080fd5b919050565b60008060408385031215611d8857600080fd5b611d9183611d59565b946020939093013593505050565b602080825282518282018190526000919060409081850190868401855b82811015611e0e57815180518552868101516001600160a01b03908116888701528682015116868601526060808201519086015260809081015115159085015260a09093019290850190600101611dbc565b5091979650505050505050565b600080600060608486031215611e3057600080fd5b611e3984611d59565b9250611e4760208501611d59565b9150604084013590509250925092565b600060208284031215611e6957600080fd5b610d8782611d59565b634e487b7160e01b600052604160045260246000fd5b600067ffffffffffffffff80841115611ea357611ea3611e72565b604051601f8501601f19908116603f01168101908282118183101715611ecb57611ecb611e72565b81604052809350858152868686011115611ee457600080fd5b858560208301376000602087830101525050509392505050565b60008060408385031215611f1157600080fd5b823567ffffffffffffffff811115611f2857600080fd5b8301601f81018513611f3957600080fd5b611f4885823560208401611e88565b95602094909401359450505050565b60008060408385031215611f6a57600080fd5b611f7383611d59565b915060208301358015158114611f8857600080fd5b809150509250929050565b60008060008060808587031215611fa957600080fd5b611fb285611d59565b9350611fc060208601611d59565b925060408501359150606085013567ffffffffffffffff811115611fe357600080fd5b8501601f81018713611ff457600080fd5b61200387823560208401611e88565b91505092959194509250565b6000806040838503121561202257600080fd5b50508035926020909101359150565b6000806040838503121561204457600080fd5b61204d83611d59565b915061205b60208401611d59565b90509250929050565b600181811c9082168061207857607f821691505b60208210810361209857634e487b7160e01b600052602260045260246000fd5b50919050565b634e487b7160e01b600052601160045260246000fd5b8181038181111561041a5761041a61209e565b8082018082111561041a5761041a61209e565b634e487b7160e01b600052603260045260246000fd5b6000600182016121025761210261209e565b5060010190565b6020808252602d908201527f4552433732313a2063616c6c6572206973206e6f7420746f6b656e206f776e6560408201526c1c881bdc88185c1c1c9bdd9959609a1b606082015260800190565b60008351612168818460208801611cdd565b83519083019061217c818360208801611cdd565b01949350505050565b60208082526024908201527f5072696365206d75737420626520657175616c20746f206c697374696e6720706040820152637269636560e01b606082015260800190565b60208082526025908201527f4552433732313a207472616e736665722066726f6d20696e636f72726563742060408201526437bbb732b960d91b606082015260800190565b601f8211156105ee57600081815260208120601f850160051c810160208610156122355750805b601f850160051c820191505b8181101561225457828155600101612241565b505050505050565b815167ffffffffffffffff81111561227657612276611e72565b61228a816122848454612064565b8461220e565b602080601f8311600181146122bf57600084156122a75750858301515b600019600386901b1c1916600185901b178555612254565b600085815260208120601f198616915b828110156122ee578886015182559484019460019091019084016122cf565b508582101561230c5787850151600019600388901b60f8161c191681555b5050505050600190811b01905550565b60208082526032908201527f4552433732313a207472616e7366657220746f206e6f6e20455243373231526560408201527131b2b4bb32b91034b6b83632b6b2b73a32b960711b606082015260800190565b6001600160a01b03858116825284166020820152604081018390526080606082018190526000906123a190830184611d01565b9695505050505050565b6000602082840312156123bd57600080fd5b8151610d8781611caa56fea26469706673582212207b5c1bf4133790cad79c428ea5fe52ae09a5ec8497604c3c8e32d1ece3f1093464736f6c63430008110033",
  "linkReferences": {},
  "deployedLinkReferences": {}
}